{
  "contractName": "Mcube_Sale",
  "abi": [
    {
      "inputs": [
        {
          "internalType": "address",
          "name": "_admin",
          "type": "address"
        },
        {
          "internalType": "address",
          "name": "_mcubeAddress",
          "type": "address"
        },
        {
          "internalType": "address",
          "name": "_tokenAddress",
          "type": "address"
        },
        {
          "internalType": "uint256",
          "name": "_price",
          "type": "uint256"
        },
        {
          "internalType": "uint256",
          "name": "_presaleAmount",
          "type": "uint256"
        },
        {
          "internalType": "uint256",
          "name": "_icosaleAmount",
          "type": "uint256"
        }
      ],
      "stateMutability": "nonpayable",
      "type": "constructor"
    },
    {
      "anonymous": false,
      "inputs": [
        {
          "indexed": true,
          "internalType": "address",
          "name": "previousOwner",
          "type": "address"
        },
        {
          "indexed": true,
          "internalType": "address",
          "name": "newOwner",
          "type": "address"
        }
      ],
      "name": "OwnershipTransferred",
      "type": "event"
    },
    {
      "inputs": [],
      "name": "admin",
      "outputs": [
        {
          "internalType": "address",
          "name": "",
          "type": "address"
        }
      ],
      "stateMutability": "view",
      "type": "function"
    },
    {
      "inputs": [],
      "name": "owner",
      "outputs": [
        {
          "internalType": "address",
          "name": "",
          "type": "address"
        }
      ],
      "stateMutability": "view",
      "type": "function"
    },
    {
      "inputs": [],
      "name": "presaleEndTimestamp",
      "outputs": [
        {
          "internalType": "uint256",
          "name": "",
          "type": "uint256"
        }
      ],
      "stateMutability": "view",
      "type": "function"
    },
    {
      "inputs": [],
      "name": "presalePrice",
      "outputs": [
        {
          "internalType": "uint256",
          "name": "",
          "type": "uint256"
        }
      ],
      "stateMutability": "view",
      "type": "function"
    },
    {
      "inputs": [],
      "name": "presaleStartTimestamp",
      "outputs": [
        {
          "internalType": "uint256",
          "name": "",
          "type": "uint256"
        }
      ],
      "stateMutability": "view",
      "type": "function"
    },
    {
      "inputs": [],
      "name": "renounceOwnership",
      "outputs": [],
      "stateMutability": "nonpayable",
      "type": "function"
    },
    {
      "inputs": [
        {
          "internalType": "address",
          "name": "newOwner",
          "type": "address"
        }
      ],
      "name": "transferOwnership",
      "outputs": [],
      "stateMutability": "nonpayable",
      "type": "function"
    },
    {
      "inputs": [
        {
          "internalType": "address",
          "name": "account",
          "type": "address"
        }
      ],
      "name": "balanceOf",
      "outputs": [
        {
          "internalType": "uint256",
          "name": "",
          "type": "uint256"
        }
      ],
      "stateMutability": "view",
      "type": "function"
    },
    {
      "inputs": [
        {
          "internalType": "uint256",
          "name": "_price",
          "type": "uint256"
        }
      ],
      "name": "setPrice",
      "outputs": [],
      "stateMutability": "nonpayable",
      "type": "function"
    },
    {
      "inputs": [],
      "name": "getPrice",
      "outputs": [
        {
          "internalType": "uint256",
          "name": "",
          "type": "uint256"
        }
      ],
      "stateMutability": "view",
      "type": "function"
    },
    {
      "inputs": [],
      "name": "totalSold",
      "outputs": [
        {
          "internalType": "uint256",
          "name": "",
          "type": "uint256"
        }
      ],
      "stateMutability": "view",
      "type": "function"
    },
    {
      "inputs": [],
      "name": "preTotalSold",
      "outputs": [
        {
          "internalType": "uint256",
          "name": "",
          "type": "uint256"
        }
      ],
      "stateMutability": "view",
      "type": "function"
    },
    {
      "inputs": [],
      "name": "icoTotalSold",
      "outputs": [
        {
          "internalType": "uint256",
          "name": "",
          "type": "uint256"
        }
      ],
      "stateMutability": "view",
      "type": "function"
    },
    {
      "inputs": [
        {
          "internalType": "address[]",
          "name": "_addressAdmin",
          "type": "address[]"
        }
      ],
      "name": "addAdminUser",
      "outputs": [],
      "stateMutability": "nonpayable",
      "type": "function"
    },
    {
      "inputs": [
        {
          "internalType": "address",
          "name": "_addressAdmin",
          "type": "address"
        }
      ],
      "name": "verifyAdmin",
      "outputs": [
        {
          "internalType": "bool",
          "name": "",
          "type": "bool"
        }
      ],
      "stateMutability": "view",
      "type": "function"
    },
    {
      "inputs": [
        {
          "internalType": "uint256",
          "name": "_presaleStartTimestamp",
          "type": "uint256"
        },
        {
          "internalType": "uint256",
          "name": "_presaleEndTimestamp",
          "type": "uint256"
        },
        {
          "internalType": "uint256",
          "name": "_presalePrice",
          "type": "uint256"
        }
      ],
      "name": "setPreToken",
      "outputs": [],
      "stateMutability": "nonpayable",
      "type": "function"
    },
    {
      "inputs": [
        {
          "internalType": "uint256",
          "name": "amount",
          "type": "uint256"
        }
      ],
      "name": "presaleBuyToken",
      "outputs": [],
      "stateMutability": "nonpayable",
      "type": "function"
    },
    {
      "inputs": [
        {
          "internalType": "uint256",
          "name": "amount",
          "type": "uint256"
        }
      ],
      "name": "buyToken",
      "outputs": [],
      "stateMutability": "nonpayable",
      "type": "function"
    },
    {
      "inputs": [
        {
          "internalType": "uint256",
          "name": "tokenAmount",
          "type": "uint256"
        }
      ],
      "name": "withdrawToken",
      "outputs": [],
      "stateMutability": "nonpayable",
      "type": "function"
    },
    {
      "inputs": [
        {
          "internalType": "address",
          "name": "_addressToWhitelist",
          "type": "address"
        }
      ],
      "name": "addWhitelistUser",
      "outputs": [],
      "stateMutability": "nonpayable",
      "type": "function"
    },
    {
      "inputs": [
        {
          "internalType": "address",
          "name": "_whitelistedAddress",
          "type": "address"
        }
      ],
      "name": "verifyUser",
      "outputs": [
        {
          "internalType": "bool",
          "name": "",
          "type": "bool"
        }
      ],
      "stateMutability": "view",
      "type": "function"
    },
    {
      "inputs": [
        {
          "internalType": "address[]",
          "name": "_addressToWhitelist",
          "type": "address[]"
        }
      ],
      "name": "batchWhitelist",
      "outputs": [],
      "stateMutability": "nonpayable",
      "type": "function"
    }
  ],
  "bytecode": "0x60806040523480156200001157600080fd5b506040516200227d3803806200227d8339818101604052810190620000379190620002ac565b620000576200004b6200013b60201b60201c565b6200014360201b60201c565b85600260006101000a81548173ffffffffffffffffffffffffffffffffffffffff021916908373ffffffffffffffffffffffffffffffffffffffff16021790555084600360006101000a81548173ffffffffffffffffffffffffffffffffffffffff021916908373ffffffffffffffffffffffffffffffffffffffff16021790555083600460006101000a81548173ffffffffffffffffffffffffffffffffffffffff021916908373ffffffffffffffffffffffffffffffffffffffff160217905550826008819055508160098190555080600a8190555050505050505062000348565b600033905090565b60008060009054906101000a900473ffffffffffffffffffffffffffffffffffffffff169050816000806101000a81548173ffffffffffffffffffffffffffffffffffffffff021916908373ffffffffffffffffffffffffffffffffffffffff1602179055508173ffffffffffffffffffffffffffffffffffffffff168173ffffffffffffffffffffffffffffffffffffffff167f8be0079c531659141344cd1fd0a4f28419497f9722a3daafe3b4186f6b6457e060405160405180910390a35050565b600080fd5b600073ffffffffffffffffffffffffffffffffffffffff82169050919050565b600062000239826200020c565b9050919050565b6200024b816200022c565b81146200025757600080fd5b50565b6000815190506200026b8162000240565b92915050565b6000819050919050565b620002868162000271565b81146200029257600080fd5b50565b600081519050620002a6816200027b565b92915050565b60008060008060008060c08789031215620002cc57620002cb62000207565b5b6000620002dc89828a016200025a565b9650506020620002ef89828a016200025a565b95505060406200030289828a016200025a565b94505060606200031589828a0162000295565b93505060806200032889828a0162000295565b92505060a06200033b89828a0162000295565b9150509295509295509295565b611f2580620003586000396000f3fe608060405234801561001057600080fd5b50600436106101415760003560e01c806378da7ba1116100b857806398d5fdca1161007c57806398d5fdca1461033a578063b31834c914610358578063be57f03114610376578063c9cf39c814610394578063f2fde38b146103b0578063f851a440146103cc57610141565b806378da7ba1146102a857806384083c89146102c65780638da5cb5b146102e25780639106d7ba1461030057806391b7f5ed1461031e57610141565b80634d8131201161010a5780634d813120146101e85780634ea37fec1461021857806350baa6221461023657806365631f4a1461025257806370a082311461026e578063715018a61461029e57610141565b80620e7fa8146101465780632d296bf114610164578063390b4f7e1461018057806339ee0661146101b057806346991b47146101cc575b600080fd5b61014e6103ea565b60405161015b91906113b6565b60405180910390f35b61017e60048036038101906101799190611411565b6103f0565b005b61019a6004803603810190610195919061149c565b6106e4565b6040516101a791906114e4565b60405180910390f35b6101ca60048036038101906101c59190611658565b61073f565b005b6101e660048036038101906101e19190611411565b61086c565b005b61020260048036038101906101fd919061149c565b610bea565b60405161020f91906114e4565b60405180910390f35b610220610c45565b60405161022d91906113b6565b60405180910390f35b610250600480360381019061024b9190611411565b610c4b565b005b61026c600480360381019061026791906116a1565b610d6b565b005b6102886004803603810190610283919061149c565b610e01565b60405161029591906113b6565b60405180910390f35b6102a6610e4a565b005b6102b0610ed2565b6040516102bd91906113b6565b60405180910390f35b6102e060048036038101906102db919061149c565b610ed8565b005b6102ea610fbf565b6040516102f79190611703565b60405180910390f35b610308610fe8565b60405161031591906113b6565b60405180910390f35b61033860048036038101906103339190611411565b610ff2565b005b610342611078565b60405161034f91906113b6565b60405180910390f35b610360611082565b60405161036d91906113b6565b60405180910390f35b61037e61108c565b60405161038b91906113b6565b60405180910390f35b6103ae60048036038101906103a99190611658565b611096565b005b6103ca60048036038101906103c5919061149c565b6111b3565b005b6103d46112ab565b6040516103e19190611703565b60405180910390f35b600f5481565b600b60003373ffffffffffffffffffffffffffffffffffffffff1673ffffffffffffffffffffffffffffffffffffffff16815260200190815260200160002060009054906101000a900460ff1661047c576040517f08c379a0000000000000000000000000000000000000000000000000000000008152600401610473906117a1565b60405180910390fd5b6008548110156104c1576040517f08c379a00000000000000000000000000000000000000000000000000000000081526004016104b890611833565b60405180910390fd5b600460009054906101000a900473ffffffffffffffffffffffffffffffffffffffff1673ffffffffffffffffffffffffffffffffffffffff166323b872dd33600260009054906101000a900473ffffffffffffffffffffffffffffffffffffffff16846040518463ffffffff1660e01b815260040161054293929190611853565b6020604051808303816000875af1158015610561573d6000803e3d6000fd5b505050506040513d601f19601f8201168201806040525081019061058591906118b6565b506000600854826105969190611941565b90506012600a6105a69190611aa5565b816105b19190611af0565b600a5410156105f5576040517f08c379a00000000000000000000000000000000000000000000000000000000081526004016105ec90611b96565b60405180910390fd5b80600560008282546106079190611bb6565b9250508190555080600760008282546106209190611bb6565b92505081905550600360009054906101000a900473ffffffffffffffffffffffffffffffffffffffff1673ffffffffffffffffffffffffffffffffffffffff1663a9059cbb336012600a6106749190611aa5565b8461067f9190611af0565b6040518363ffffffff1660e01b815260040161069c929190611c0c565b6020604051808303816000875af11580156106bb573d6000803e3d6000fd5b505050506040513d601f19601f820116820180604052508101906106df91906118b6565b505050565b600080600c60008473ffffffffffffffffffffffffffffffffffffffff1673ffffffffffffffffffffffffffffffffffffffff16815260200190815260200160002060009054906101000a900460ff16905080915050919050565b600c60003373ffffffffffffffffffffffffffffffffffffffff1673ffffffffffffffffffffffffffffffffffffffff16815260200190815260200160002060009054906101000a900460ff166107cb576040517f08c379a00000000000000000000000000000000000000000000000000000000081526004016107c290611c81565b60405180910390fd5b60008151905060005b818110156108675760008382815181106107f1576107f0611ca1565b5b602002602001015190506001600b60008373ffffffffffffffffffffffffffffffffffffffff1673ffffffffffffffffffffffffffffffffffffffff16815260200190815260200160002060006101000a81548160ff02191690831515021790555050808061085f90611cd0565b9150506107d4565b505050565b600b60003373ffffffffffffffffffffffffffffffffffffffff1673ffffffffffffffffffffffffffffffffffffffff16815260200190815260200160002060009054906101000a900460ff166108f8576040517f08c379a00000000000000000000000000000000000000000000000000000000081526004016108ef906117a1565b60405180910390fd5b42600d54101561093d576040517f08c379a000000000000000000000000000000000000000000000000000000000815260040161093490611d65565b60405180910390fd5b42600e541115610982576040517f08c379a000000000000000000000000000000000000000000000000000000000815260040161097990611dd1565b60405180910390fd5b600f548110156109c7576040517f08c379a00000000000000000000000000000000000000000000000000000000081526004016109be90611833565b60405180910390fd5b600460009054906101000a900473ffffffffffffffffffffffffffffffffffffffff1673ffffffffffffffffffffffffffffffffffffffff166323b872dd33600260009054906101000a900473ffffffffffffffffffffffffffffffffffffffff16846040518463ffffffff1660e01b8152600401610a4893929190611853565b6020604051808303816000875af1158015610a67573d6000803e3d6000fd5b505050506040513d601f19601f82011682018060405250810190610a8b91906118b6565b506000600f5482610a9c9190611941565b90506006600a610aac9190611aa5565b81610ab79190611af0565b6009541015610afb576040517f08c379a0000000000000000000000000000000000000000000000000000000008152600401610af290611b96565b60405180910390fd5b8060056000828254610b0d9190611bb6565b925050819055508060066000828254610b269190611bb6565b92505081905550600360009054906101000a900473ffffffffffffffffffffffffffffffffffffffff1673ffffffffffffffffffffffffffffffffffffffff1663a9059cbb336006600a610b7a9190611aa5565b84610b859190611af0565b6040518363ffffffff1660e01b8152600401610ba2929190611c0c565b6020604051808303816000875af1158015610bc1573d6000803e3d6000fd5b505050506040513d601f19601f82011682018060405250810190610be591906118b6565b505050565b600080600b60008473ffffffffffffffffffffffffffffffffffffffff1673ffffffffffffffffffffffffffffffffffffffff16815260200190815260200160002060009054906101000a900460ff16905080915050919050565b600d5481565b610c536112d1565b73ffffffffffffffffffffffffffffffffffffffff16610c71610fbf565b73ffffffffffffffffffffffffffffffffffffffff1614610cc7576040517f08c379a0000000000000000000000000000000000000000000000000000000008152600401610cbe90611e3d565b60405180910390fd5b600360009054906101000a900473ffffffffffffffffffffffffffffffffffffffff1673ffffffffffffffffffffffffffffffffffffffff1663a9059cbb33836040518363ffffffff1660e01b8152600401610d24929190611c0c565b6020604051808303816000875af1158015610d43573d6000803e3d6000fd5b505050506040513d601f19601f82011682018060405250810190610d6791906118b6565b5050565b610d736112d1565b73ffffffffffffffffffffffffffffffffffffffff16610d91610fbf565b73ffffffffffffffffffffffffffffffffffffffff1614610de7576040517f08c379a0000000000000000000000000000000000000000000000000000000008152600401610dde90611e3d565b60405180910390fd5b82600d8190555081600e8190555080600f81905550505050565b6000600160008373ffffffffffffffffffffffffffffffffffffffff1673ffffffffffffffffffffffffffffffffffffffff168152602001908152602001600020549050919050565b610e526112d1565b73ffffffffffffffffffffffffffffffffffffffff16610e70610fbf565b73ffffffffffffffffffffffffffffffffffffffff1614610ec6576040517f08c379a0000000000000000000000000000000000000000000000000000000008152600401610ebd90611e3d565b60405180910390fd5b610ed060006112d9565b565b600e5481565b600c60003373ffffffffffffffffffffffffffffffffffffffff1673ffffffffffffffffffffffffffffffffffffffff16815260200190815260200160002060009054906101000a900460ff16610f64576040517f08c379a0000000000000000000000000000000000000000000000000000000008152600401610f5b90611c81565b60405180910390fd5b6001600b60008373ffffffffffffffffffffffffffffffffffffffff1673ffffffffffffffffffffffffffffffffffffffff16815260200190815260200160002060006101000a81548160ff02191690831515021790555050565b60008060009054906101000a900473ffffffffffffffffffffffffffffffffffffffff16905090565b6000600554905090565b610ffa6112d1565b73ffffffffffffffffffffffffffffffffffffffff16611018610fbf565b73ffffffffffffffffffffffffffffffffffffffff161461106e576040517f08c379a000000000000000000000000000000000000000000000000000000000815260040161106590611e3d565b60405180910390fd5b8060088190555050565b6000600854905090565b6000600654905090565b6000600754905090565b61109e6112d1565b73ffffffffffffffffffffffffffffffffffffffff166110bc610fbf565b73ffffffffffffffffffffffffffffffffffffffff1614611112576040517f08c379a000000000000000000000000000000000000000000000000000000000815260040161110990611e3d565b60405180910390fd5b60008151905060005b818110156111ae57600083828151811061113857611137611ca1565b5b602002602001015190506001600c60008373ffffffffffffffffffffffffffffffffffffffff1673ffffffffffffffffffffffffffffffffffffffff16815260200190815260200160002060006101000a81548160ff0219169083151502179055505080806111a690611cd0565b91505061111b565b505050565b6111bb6112d1565b73ffffffffffffffffffffffffffffffffffffffff166111d9610fbf565b73ffffffffffffffffffffffffffffffffffffffff161461122f576040517f08c379a000000000000000000000000000000000000000000000000000000000815260040161122690611e3d565b60405180910390fd5b600073ffffffffffffffffffffffffffffffffffffffff168173ffffffffffffffffffffffffffffffffffffffff16141561129f576040517f08c379a000000000000000000000000000000000000000000000000000000000815260040161129690611ecf565b60405180910390fd5b6112a8816112d9565b50565b600260009054906101000a900473ffffffffffffffffffffffffffffffffffffffff1681565b600033905090565b60008060009054906101000a900473ffffffffffffffffffffffffffffffffffffffff169050816000806101000a81548173ffffffffffffffffffffffffffffffffffffffff021916908373ffffffffffffffffffffffffffffffffffffffff1602179055508173ffffffffffffffffffffffffffffffffffffffff168173ffffffffffffffffffffffffffffffffffffffff167f8be0079c531659141344cd1fd0a4f28419497f9722a3daafe3b4186f6b6457e060405160405180910390a35050565b6000819050919050565b6113b08161139d565b82525050565b60006020820190506113cb60008301846113a7565b92915050565b6000604051905090565b600080fd5b600080fd5b6113ee8161139d565b81146113f957600080fd5b50565b60008135905061140b816113e5565b92915050565b600060208284031215611427576114266113db565b5b6000611435848285016113fc565b91505092915050565b600073ffffffffffffffffffffffffffffffffffffffff82169050919050565b60006114698261143e565b9050919050565b6114798161145e565b811461148457600080fd5b50565b60008135905061149681611470565b92915050565b6000602082840312156114b2576114b16113db565b5b60006114c084828501611487565b91505092915050565b60008115159050919050565b6114de816114c9565b82525050565b60006020820190506114f960008301846114d5565b92915050565b600080fd5b6000601f19601f8301169050919050565b7f4e487b7100000000000000000000000000000000000000000000000000000000600052604160045260246000fd5b61154d82611504565b810181811067ffffffffffffffff8211171561156c5761156b611515565b5b80604052505050565b600061157f6113d1565b905061158b8282611544565b919050565b600067ffffffffffffffff8211156115ab576115aa611515565b5b602082029050602081019050919050565b600080fd5b60006115d46115cf84611590565b611575565b905080838252602082019050602084028301858111156115f7576115f66115bc565b5b835b81811015611620578061160c8882611487565b8452602084019350506020810190506115f9565b5050509392505050565b600082601f83011261163f5761163e6114ff565b5b813561164f8482602086016115c1565b91505092915050565b60006020828403121561166e5761166d6113db565b5b600082013567ffffffffffffffff81111561168c5761168b6113e0565b5b6116988482850161162a565b91505092915050565b6000806000606084860312156116ba576116b96113db565b5b60006116c8868287016113fc565b93505060206116d9868287016113fc565b92505060406116ea868287016113fc565b9150509250925092565b6116fd8161145e565b82525050565b600060208201905061171860008301846116f4565b92915050565b600082825260208201905092915050565b7f57686974656c6973743a20596f75206e65656420746f2062652077686974656c60008201527f6973746564000000000000000000000000000000000000000000000000000000602082015250565b600061178b60258361171e565b91506117968261172f565b604082019050919050565b600060208201905081810360008301526117ba8161177e565b9050919050565b7f416d6f756e742073686f756c642062652067726561746572207468616e20507260008201527f6963652e00000000000000000000000000000000000000000000000000000000602082015250565b600061181d60248361171e565b9150611828826117c1565b604082019050919050565b6000602082019050818103600083015261184c81611810565b9050919050565b600060608201905061186860008301866116f4565b61187560208301856116f4565b61188260408301846113a7565b949350505050565b611893816114c9565b811461189e57600080fd5b50565b6000815190506118b08161188a565b92915050565b6000602082840312156118cc576118cb6113db565b5b60006118da848285016118a1565b91505092915050565b7f4e487b7100000000000000000000000000000000000000000000000000000000600052601260045260246000fd5b7f4e487b7100000000000000000000000000000000000000000000000000000000600052601160045260246000fd5b600061194c8261139d565b91506119578361139d565b925082611967576119666118e3565b5b828204905092915050565b60008160011c9050919050565b6000808291508390505b60018511156119c9578086048111156119a5576119a4611912565b5b60018516156119b45780820291505b80810290506119c285611972565b9450611989565b94509492505050565b6000826119e25760019050611a9e565b816119f05760009050611a9e565b8160018114611a065760028114611a1057611a3f565b6001915050611a9e565b60ff841115611a2257611a21611912565b5b8360020a915084821115611a3957611a38611912565b5b50611a9e565b5060208310610133831016604e8410600b8410161715611a745782820a905083811115611a6f57611a6e611912565b5b611a9e565b611a81848484600161197f565b92509050818404811115611a9857611a97611912565b5b81810290505b9392505050565b6000611ab08261139d565b9150611abb8361139d565b9250611ae87fffffffffffffffffffffffffffffffffffffffffffffffffffffffffffffffff84846119d2565b905092915050565b6000611afb8261139d565b9150611b068361139d565b9250817fffffffffffffffffffffffffffffffffffffffffffffffffffffffffffffffff0483118215151615611b3f57611b3e611912565b5b828202905092915050565b7f50726573616c6520616d6f756e7420746f6b656e206973206f7665722e000000600082015250565b6000611b80601d8361171e565b9150611b8b82611b4a565b602082019050919050565b60006020820190508181036000830152611baf81611b73565b9050919050565b6000611bc18261139d565b9150611bcc8361139d565b9250827fffffffffffffffffffffffffffffffffffffffffffffffffffffffffffffffff03821115611c0157611c00611912565b5b828201905092915050565b6000604082019050611c2160008301856116f4565b611c2e60208301846113a7565b9392505050565b7f596f7520617265206e6f7420612041646d696e2e000000000000000000000000600082015250565b6000611c6b60148361171e565b9150611c7682611c35565b602082019050919050565b60006020820190508181036000830152611c9a81611c5e565b9050919050565b7f4e487b7100000000000000000000000000000000000000000000000000000000600052603260045260246000fd5b6000611cdb8261139d565b91507fffffffffffffffffffffffffffffffffffffffffffffffffffffffffffffffff821415611d0e57611d0d611912565b5b600182019050919050565b7f50726573616c6520737461727474696d65206973206f76657200000000000000600082015250565b6000611d4f60198361171e565b9150611d5a82611d19565b602082019050919050565b60006020820190508181036000830152611d7e81611d42565b9050919050565b7f50726573616c6520656e6474696d65206973206f766572000000000000000000600082015250565b6000611dbb60178361171e565b9150611dc682611d85565b602082019050919050565b60006020820190508181036000830152611dea81611dae565b9050919050565b7f4f776e61626c653a2063616c6c6572206973206e6f7420746865206f776e6572600082015250565b6000611e2760208361171e565b9150611e3282611df1565b602082019050919050565b60006020820190508181036000830152611e5681611e1a565b9050919050565b7f4f776e61626c653a206e6577206f776e657220697320746865207a65726f206160008201527f6464726573730000000000000000000000000000000000000000000000000000602082015250565b6000611eb960268361171e565b9150611ec482611e5d565b604082019050919050565b60006020820190508181036000830152611ee881611eac565b905091905056fea2646970667358221220c760c2bfc3a4b39f463b7e9bf59b75b1671aa08af67535e7426f4b75e317ab5864736f6c634300080a0033",
  "immutableReferences": {},
  "source": "// SPDX-License-Identifier: MIT\npragma solidity ^0.8.0;\n\nimport \"@openzeppelin/contracts/interfaces/IERC20.sol\";\nimport \"@openzeppelin/contracts/access/Ownable.sol\";\n\ncontract Mcube_Sale is Ownable {\n    mapping(address => uint256) private _balances;\n\n    address public admin;\n    address private mcubeAddress;\n    address private tokenAddress;\n    uint256 private _totalSold;\n    uint256 private _preTotalSold;\n    uint256 private _icoTotalSold;\n    uint256 private price;\n    uint256 private presaleAmount;\n    uint256 private icosaleAmount;\n\n    mapping(address => bool) whitelistedAddresses;\n    mapping(address => bool) adminAddresses;\n\n    uint256 public presaleStartTimestamp;\n    uint256 public presaleEndTimestamp;\n    uint256 public presalePrice;\n\n    constructor(address _admin,address _mcubeAddress,address _tokenAddress,uint256 _price, uint256 _presaleAmount, uint256 _icosaleAmount) {\n        admin = _admin;\n        mcubeAddress = _mcubeAddress;\n        tokenAddress = _tokenAddress;\n        price = _price;\n        presaleAmount = _presaleAmount;\n        icosaleAmount = _icosaleAmount;\n    }\n  function balanceOf(address account) public view returns (uint256) {\n        return _balances[account];\n    }\n\n    function setPrice (uint256 _price) public onlyOwner{\n    price = _price;\n    }\n\n    function getPrice () public view virtual returns (uint256){\n        return price;\n    }\n\n    function totalSold () public view virtual returns (uint256){\n        return _totalSold;\n    }   \n\n    function preTotalSold () public view virtual returns (uint256){\n        return _preTotalSold;\n    }\n\n    function icoTotalSold () public view virtual returns (uint256){\n        return _icoTotalSold;\n    }\n\n    function addAdminUser(address[] memory _addressAdmin) public onlyOwner {\n        uint size = _addressAdmin.length;\n        for(uint256 i=0; i< size; i++){\n            address adminUser = _addressAdmin[i];\n            adminAddresses[adminUser] = true;\n        }\n    }\n\n    function verifyAdmin(address _addressAdmin) public view returns(bool) {\n      bool adminIsWhitelisted = adminAddresses[_addressAdmin];\n      return adminIsWhitelisted;\n    }\n\n    modifier onlyAdmin() {\n      require(adminAddresses[msg.sender], \"You are not a Admin.\");\n      _;\n    }\n\n    function setPreToken (uint256 _presaleStartTimestamp, uint256 _presaleEndTimestamp,uint256 _presalePrice) public onlyOwner{  \n      presaleStartTimestamp = _presaleStartTimestamp;\n      presaleEndTimestamp = _presaleEndTimestamp;\n      presalePrice = _presalePrice;\n    }\n\n  function presaleBuyToken (uint256 amount) public onlyWhitelisted{  \n      require(presaleStartTimestamp >= block.timestamp, \"Presale starttime is over\");\n      require(presaleEndTimestamp <= block.timestamp, \"Presale endtime is over\");\n      require(amount >= presalePrice,\"Amount should be greater than Price.\");\n      IERC20(tokenAddress).transferFrom(msg.sender, admin, amount);\n      uint256 tokenAmount = amount / presalePrice;\n      require(presaleAmount >= tokenAmount * 10**uint(6),\"Presale amount token is over.\"); \n      _totalSold += tokenAmount;\n      _preTotalSold += tokenAmount;\n      IERC20(mcubeAddress).transfer(msg.sender, tokenAmount * 10**uint(6));\n    }\n\n    function buyToken (uint256 amount) public onlyWhitelisted{  \n      require(amount>=price,\"Amount should be greater than Price.\");  \n      IERC20(tokenAddress).transferFrom(msg.sender,admin,amount);\n      uint256 tokenAmount = amount / price;\n      require(icosaleAmount >= tokenAmount * 10**uint(18),\"Presale amount token is over.\"); \n      _totalSold += tokenAmount;\n      _icoTotalSold += tokenAmount;\n      IERC20(mcubeAddress).transfer(msg.sender,tokenAmount * 10**uint(18));\n    }\n\n    function withdrawToken (uint256 tokenAmount) external onlyOwner{   \n    IERC20(mcubeAddress).transfer(msg.sender,tokenAmount);  \n    }\n\n    modifier isWhitelisted(address _address) {\n      require(whitelistedAddresses[_address], \"Whitelist: You need to be whitelisted\");\n      _;\n    }\n\n    modifier onlyWhitelisted() {\n      require(whitelistedAddresses[msg.sender], \"Whitelist: You need to be whitelisted\");\n      _;\n    }\n\n    function addWhitelistUser(address _addressToWhitelist) public onlyAdmin {\n      whitelistedAddresses[_addressToWhitelist] = true;\n    }\n\n    function verifyUser(address _whitelistedAddress) public view returns(bool) {\n      bool userIsWhitelisted = whitelistedAddresses[_whitelistedAddress];\n      return userIsWhitelisted;\n    }\n\n    function batchWhitelist(address[] memory _addressToWhitelist) public onlyAdmin {\n      uint size = _addressToWhitelist.length;\n    \n      for(uint256 i=0; i< size; i++){\n          address user = _addressToWhitelist[i];\n          whitelistedAddresses[user] = true;\n      }\n }\n\n}",
  "sourcePath": "/home/sevenbits/Documents/Mcube_Biz/mcubebiz-blockchain/contracts/ICO_contract.sol",
  "compiler": {
    "name": "solc",
    "version": "0.8.10+commit.fc410830.Emscripten.clang"
  },
  "schemaVersion": "3.4.3",
  "updatedAt": "2022-05-02T13:37:44.148Z",
  "devdoc": {
    "kind": "dev",
    "methods": {
      "owner()": {
        "details": "Returns the address of the current owner."
      },
      "renounceOwnership()": {
        "details": "Leaves the contract without owner. It will not be possible to call `onlyOwner` functions anymore. Can only be called by the current owner. NOTE: Renouncing ownership will leave the contract without an owner, thereby removing any functionality that is only available to the owner."
      },
      "transferOwnership(address)": {
        "details": "Transfers ownership of the contract to a new account (`newOwner`). Can only be called by the current owner."
      }
    },
    "version": 1
  },
  "userdoc": {
    "kind": "user",
    "methods": {},
    "version": 1
  }
}