{
  "contractName": "MFLIXSale",
  "abi": [
    {
      "inputs": [
        {
          "internalType": "address",
          "name": "_admin",
          "type": "address"
        },
        {
          "internalType": "address",
          "name": "_mcubeAddress",
          "type": "address"
        },
        {
          "internalType": "address",
          "name": "_tokenAddress",
          "type": "address"
        },
        {
          "internalType": "uint256",
          "name": "_price",
          "type": "uint256"
        },
        {
          "internalType": "uint256",
          "name": "_presaleAmount",
          "type": "uint256"
        },
        {
          "internalType": "uint256",
          "name": "_icosaleAmount",
          "type": "uint256"
        }
      ],
      "stateMutability": "nonpayable",
      "type": "constructor"
    },
    {
      "anonymous": false,
      "inputs": [
        {
          "indexed": true,
          "internalType": "address",
          "name": "previousOwner",
          "type": "address"
        },
        {
          "indexed": true,
          "internalType": "address",
          "name": "newOwner",
          "type": "address"
        }
      ],
      "name": "OwnershipTransferred",
      "type": "event"
    },
    {
      "inputs": [],
      "name": "admin",
      "outputs": [
        {
          "internalType": "address",
          "name": "",
          "type": "address"
        }
      ],
      "stateMutability": "view",
      "type": "function",
      "constant": true
    },
    {
      "inputs": [],
      "name": "owner",
      "outputs": [
        {
          "internalType": "address",
          "name": "",
          "type": "address"
        }
      ],
      "stateMutability": "view",
      "type": "function",
      "constant": true
    },
    {
      "inputs": [],
      "name": "presaleEndTimestamp",
      "outputs": [
        {
          "internalType": "uint256",
          "name": "",
          "type": "uint256"
        }
      ],
      "stateMutability": "view",
      "type": "function",
      "constant": true
    },
    {
      "inputs": [],
      "name": "presalePrice",
      "outputs": [
        {
          "internalType": "uint256",
          "name": "",
          "type": "uint256"
        }
      ],
      "stateMutability": "view",
      "type": "function",
      "constant": true
    },
    {
      "inputs": [],
      "name": "presaleStartTimestamp",
      "outputs": [
        {
          "internalType": "uint256",
          "name": "",
          "type": "uint256"
        }
      ],
      "stateMutability": "view",
      "type": "function",
      "constant": true
    },
    {
      "inputs": [],
      "name": "renounceOwnership",
      "outputs": [],
      "stateMutability": "nonpayable",
      "type": "function"
    },
    {
      "inputs": [
        {
          "internalType": "address",
          "name": "newOwner",
          "type": "address"
        }
      ],
      "name": "transferOwnership",
      "outputs": [],
      "stateMutability": "nonpayable",
      "type": "function"
    },
    {
      "inputs": [
        {
          "internalType": "address",
          "name": "account",
          "type": "address"
        }
      ],
      "name": "balanceOf",
      "outputs": [
        {
          "internalType": "uint256",
          "name": "",
          "type": "uint256"
        }
      ],
      "stateMutability": "view",
      "type": "function",
      "constant": true
    },
    {
      "inputs": [
        {
          "internalType": "uint256",
          "name": "_price",
          "type": "uint256"
        }
      ],
      "name": "setPrice",
      "outputs": [],
      "stateMutability": "nonpayable",
      "type": "function"
    },
    {
      "inputs": [],
      "name": "getPrice",
      "outputs": [
        {
          "internalType": "uint256",
          "name": "",
          "type": "uint256"
        }
      ],
      "stateMutability": "view",
      "type": "function",
      "constant": true
    },
    {
      "inputs": [],
      "name": "getpresaleAmount",
      "outputs": [
        {
          "internalType": "uint256",
          "name": "",
          "type": "uint256"
        }
      ],
      "stateMutability": "view",
      "type": "function",
      "constant": true
    },
    {
      "inputs": [],
      "name": "geticosaleAmount",
      "outputs": [
        {
          "internalType": "uint256",
          "name": "",
          "type": "uint256"
        }
      ],
      "stateMutability": "view",
      "type": "function",
      "constant": true
    },
    {
      "inputs": [
        {
          "internalType": "uint256",
          "name": "_setpresaleAmount",
          "type": "uint256"
        }
      ],
      "name": "setpresaleAmount",
      "outputs": [],
      "stateMutability": "nonpayable",
      "type": "function"
    },
    {
      "inputs": [
        {
          "internalType": "uint256",
          "name": "_seticosaleAmount",
          "type": "uint256"
        }
      ],
      "name": "seticosaleAmount",
      "outputs": [],
      "stateMutability": "nonpayable",
      "type": "function"
    },
    {
      "inputs": [],
      "name": "totalSold",
      "outputs": [
        {
          "internalType": "uint256",
          "name": "",
          "type": "uint256"
        }
      ],
      "stateMutability": "view",
      "type": "function",
      "constant": true
    },
    {
      "inputs": [],
      "name": "preTotalSold",
      "outputs": [
        {
          "internalType": "uint256",
          "name": "",
          "type": "uint256"
        }
      ],
      "stateMutability": "view",
      "type": "function",
      "constant": true
    },
    {
      "inputs": [],
      "name": "icoTotalSold",
      "outputs": [
        {
          "internalType": "uint256",
          "name": "",
          "type": "uint256"
        }
      ],
      "stateMutability": "view",
      "type": "function",
      "constant": true
    },
    {
      "inputs": [
        {
          "internalType": "address[]",
          "name": "_addressAdmin",
          "type": "address[]"
        }
      ],
      "name": "addAdminUser",
      "outputs": [],
      "stateMutability": "nonpayable",
      "type": "function"
    },
    {
      "inputs": [
        {
          "internalType": "address",
          "name": "_addressAdmin",
          "type": "address"
        }
      ],
      "name": "verifyAdmin",
      "outputs": [
        {
          "internalType": "bool",
          "name": "",
          "type": "bool"
        }
      ],
      "stateMutability": "view",
      "type": "function",
      "constant": true
    },
    {
      "inputs": [
        {
          "internalType": "uint256",
          "name": "_presaleStartTimestamp",
          "type": "uint256"
        },
        {
          "internalType": "uint256",
          "name": "_presaleEndTimestamp",
          "type": "uint256"
        },
        {
          "internalType": "uint256",
          "name": "_presalePrice",
          "type": "uint256"
        }
      ],
      "name": "setPreToken",
      "outputs": [],
      "stateMutability": "nonpayable",
      "type": "function"
    },
    {
      "inputs": [
        {
          "internalType": "uint256",
          "name": "amount",
          "type": "uint256"
        }
      ],
      "name": "presaleBuyToken",
      "outputs": [],
      "stateMutability": "nonpayable",
      "type": "function"
    },
    {
      "inputs": [
        {
          "internalType": "uint256",
          "name": "amount",
          "type": "uint256"
        }
      ],
      "name": "buyToken",
      "outputs": [],
      "stateMutability": "nonpayable",
      "type": "function"
    },
    {
      "inputs": [
        {
          "internalType": "uint256",
          "name": "tokenAmount",
          "type": "uint256"
        }
      ],
      "name": "withdrawToken",
      "outputs": [],
      "stateMutability": "nonpayable",
      "type": "function"
    },
    {
      "inputs": [
        {
          "internalType": "address",
          "name": "_addressToWhitelist",
          "type": "address"
        }
      ],
      "name": "addWhitelistUser",
      "outputs": [],
      "stateMutability": "nonpayable",
      "type": "function"
    },
    {
      "inputs": [
        {
          "internalType": "address",
          "name": "_whitelistedAddress",
          "type": "address"
        }
      ],
      "name": "verifyUser",
      "outputs": [
        {
          "internalType": "bool",
          "name": "",
          "type": "bool"
        }
      ],
      "stateMutability": "view",
      "type": "function",
      "constant": true
    },
    {
      "inputs": [
        {
          "internalType": "address[]",
          "name": "_addressToWhitelist",
          "type": "address[]"
        }
      ],
      "name": "batchWhitelist",
      "outputs": [],
      "stateMutability": "nonpayable",
      "type": "function"
    }
  ],
  "bytecode": "0x60806040523480156200001157600080fd5b50604051620024c9380380620024c98339818101604052810190620000379190620002ac565b620000576200004b6200013b60201b60201c565b6200014360201b60201c565b85600260006101000a81548173ffffffffffffffffffffffffffffffffffffffff021916908373ffffffffffffffffffffffffffffffffffffffff16021790555084600360006101000a81548173ffffffffffffffffffffffffffffffffffffffff021916908373ffffffffffffffffffffffffffffffffffffffff16021790555083600460006101000a81548173ffffffffffffffffffffffffffffffffffffffff021916908373ffffffffffffffffffffffffffffffffffffffff160217905550826008819055508160098190555080600a8190555050505050505062000348565b600033905090565b60008060009054906101000a900473ffffffffffffffffffffffffffffffffffffffff169050816000806101000a81548173ffffffffffffffffffffffffffffffffffffffff021916908373ffffffffffffffffffffffffffffffffffffffff1602179055508173ffffffffffffffffffffffffffffffffffffffff168173ffffffffffffffffffffffffffffffffffffffff167f8be0079c531659141344cd1fd0a4f28419497f9722a3daafe3b4186f6b6457e060405160405180910390a35050565b600080fd5b600073ffffffffffffffffffffffffffffffffffffffff82169050919050565b600062000239826200020c565b9050919050565b6200024b816200022c565b81146200025757600080fd5b50565b6000815190506200026b8162000240565b92915050565b6000819050919050565b620002868162000271565b81146200029257600080fd5b50565b600081519050620002a6816200027b565b92915050565b60008060008060008060c08789031215620002cc57620002cb62000207565b5b6000620002dc89828a016200025a565b9650506020620002ef89828a016200025a565b95505060406200030289828a016200025a565b94505060606200031589828a0162000295565b93505060806200032889828a0162000295565b92505060a06200033b89828a0162000295565b9150509295509295509295565b61217180620003586000396000f3fe608060405234801561001057600080fd5b506004361061018d5760003560e01c806378da7ba1116100de578063b31834c911610097578063e3a829fb11610071578063e3a829fb14610436578063f2fde38b14610454578063f3de72be14610470578063f851a4401461048c5761018d565b8063b31834c9146103de578063be57f031146103fc578063c9cf39c81461041a5761018d565b806378da7ba11461032e57806384083c891461034c5780638da5cb5b146103685780639106d7ba1461038657806391b7f5ed146103a457806398d5fdca146103c05761018d565b80634bf7d5171161014b57806350baa6221161012557806350baa622146102bc57806365631f4a146102d857806370a08231146102f4578063715018a6146103245761018d565b80634bf7d517146102505780634d8131201461026e5780634ea37fec1461029e5761018d565b80620e7fa8146101925780630d696c5a146101b05780632d296bf1146101cc578063390b4f7e146101e857806339ee06611461021857806346991b4714610234575b600080fd5b61019a6104aa565b6040516101a79190611596565b60405180910390f35b6101ca60048036038101906101c591906115f1565b6104b0565b005b6101e660048036038101906101e191906115f1565b610536565b005b61020260048036038101906101fd919061167c565b61082a565b60405161020f91906116c4565b60405180910390f35b610232600480360381019061022d9190611838565b610885565b005b61024e600480360381019061024991906115f1565b6109b2565b005b610258610d30565b6040516102659190611596565b60405180910390f35b6102886004803603810190610283919061167c565b610d3a565b60405161029591906116c4565b60405180910390f35b6102a6610d95565b6040516102b39190611596565b60405180910390f35b6102d660048036038101906102d191906115f1565b610d9b565b005b6102f260048036038101906102ed9190611881565b610ebb565b005b61030e6004803603810190610309919061167c565b610f51565b60405161031b9190611596565b60405180910390f35b61032c610f9a565b005b610336611022565b6040516103439190611596565b60405180910390f35b6103666004803603810190610361919061167c565b611028565b005b61037061110f565b60405161037d91906118e3565b60405180910390f35b61038e611138565b60405161039b9190611596565b60405180910390f35b6103be60048036038101906103b991906115f1565b611142565b005b6103c86111c8565b6040516103d59190611596565b60405180910390f35b6103e66111d2565b6040516103f39190611596565b60405180910390f35b6104046111dc565b6040516104119190611596565b60405180910390f35b610434600480360381019061042f9190611838565b6111e6565b005b61043e611303565b60405161044b9190611596565b60405180910390f35b61046e6004803603810190610469919061167c565b61130d565b005b61048a600480360381019061048591906115f1565b611405565b005b61049461148b565b6040516104a191906118e3565b60405180910390f35b600f5481565b6104b86114b1565b73ffffffffffffffffffffffffffffffffffffffff166104d661110f565b73ffffffffffffffffffffffffffffffffffffffff161461052c576040517f08c379a00000000000000000000000000000000000000000000000000000000081526004016105239061195b565b60405180910390fd5b80600a8190555050565b600b60003373ffffffffffffffffffffffffffffffffffffffff1673ffffffffffffffffffffffffffffffffffffffff16815260200190815260200160002060009054906101000a900460ff166105c2576040517f08c379a00000000000000000000000000000000000000000000000000000000081526004016105b9906119ed565b60405180910390fd5b600854811015610607576040517f08c379a00000000000000000000000000000000000000000000000000000000081526004016105fe90611a7f565b60405180910390fd5b600460009054906101000a900473ffffffffffffffffffffffffffffffffffffffff1673ffffffffffffffffffffffffffffffffffffffff166323b872dd33600260009054906101000a900473ffffffffffffffffffffffffffffffffffffffff16846040518463ffffffff1660e01b815260040161068893929190611a9f565b6020604051808303816000875af11580156106a7573d6000803e3d6000fd5b505050506040513d601f19601f820116820180604052508101906106cb9190611b02565b506000600854826106dc9190611b8d565b90506012600a6106ec9190611cf1565b816106f79190611d3c565b600a54101561073b576040517f08c379a000000000000000000000000000000000000000000000000000000000815260040161073290611de2565b60405180910390fd5b806005600082825461074d9190611e02565b9250508190555080600760008282546107669190611e02565b92505081905550600360009054906101000a900473ffffffffffffffffffffffffffffffffffffffff1673ffffffffffffffffffffffffffffffffffffffff1663a9059cbb336012600a6107ba9190611cf1565b846107c59190611d3c565b6040518363ffffffff1660e01b81526004016107e2929190611e58565b6020604051808303816000875af1158015610801573d6000803e3d6000fd5b505050506040513d601f19601f820116820180604052508101906108259190611b02565b505050565b600080600c60008473ffffffffffffffffffffffffffffffffffffffff1673ffffffffffffffffffffffffffffffffffffffff16815260200190815260200160002060009054906101000a900460ff16905080915050919050565b600c60003373ffffffffffffffffffffffffffffffffffffffff1673ffffffffffffffffffffffffffffffffffffffff16815260200190815260200160002060009054906101000a900460ff16610911576040517f08c379a000000000000000000000000000000000000000000000000000000000815260040161090890611ecd565b60405180910390fd5b60008151905060005b818110156109ad57600083828151811061093757610936611eed565b5b602002602001015190506001600b60008373ffffffffffffffffffffffffffffffffffffffff1673ffffffffffffffffffffffffffffffffffffffff16815260200190815260200160002060006101000a81548160ff0219169083151502179055505080806109a590611f1c565b91505061091a565b505050565b600b60003373ffffffffffffffffffffffffffffffffffffffff1673ffffffffffffffffffffffffffffffffffffffff16815260200190815260200160002060009054906101000a900460ff16610a3e576040517f08c379a0000000000000000000000000000000000000000000000000000000008152600401610a35906119ed565b60405180910390fd5b42600d541115610a83576040517f08c379a0000000000000000000000000000000000000000000000000000000008152600401610a7a90611fb1565b60405180910390fd5b42600e541015610ac8576040517f08c379a0000000000000000000000000000000000000000000000000000000008152600401610abf9061201d565b60405180910390fd5b600f54811015610b0d576040517f08c379a0000000000000000000000000000000000000000000000000000000008152600401610b0490611a7f565b60405180910390fd5b600460009054906101000a900473ffffffffffffffffffffffffffffffffffffffff1673ffffffffffffffffffffffffffffffffffffffff166323b872dd33600260009054906101000a900473ffffffffffffffffffffffffffffffffffffffff16846040518463ffffffff1660e01b8152600401610b8e93929190611a9f565b6020604051808303816000875af1158015610bad573d6000803e3d6000fd5b505050506040513d601f19601f82011682018060405250810190610bd19190611b02565b506000600f5482610be29190611b8d565b90506012600a610bf29190611cf1565b81610bfd9190611d3c565b6009541015610c41576040517f08c379a0000000000000000000000000000000000000000000000000000000008152600401610c3890612089565b60405180910390fd5b8060056000828254610c539190611e02565b925050819055508060066000828254610c6c9190611e02565b92505081905550600360009054906101000a900473ffffffffffffffffffffffffffffffffffffffff1673ffffffffffffffffffffffffffffffffffffffff1663a9059cbb336012600a610cc09190611cf1565b84610ccb9190611d3c565b6040518363ffffffff1660e01b8152600401610ce8929190611e58565b6020604051808303816000875af1158015610d07573d6000803e3d6000fd5b505050506040513d601f19601f82011682018060405250810190610d2b9190611b02565b505050565b6000600954905090565b600080600b60008473ffffffffffffffffffffffffffffffffffffffff1673ffffffffffffffffffffffffffffffffffffffff16815260200190815260200160002060009054906101000a900460ff16905080915050919050565b600d5481565b610da36114b1565b73ffffffffffffffffffffffffffffffffffffffff16610dc161110f565b73ffffffffffffffffffffffffffffffffffffffff1614610e17576040517f08c379a0000000000000000000000000000000000000000000000000000000008152600401610e0e9061195b565b60405180910390fd5b600360009054906101000a900473ffffffffffffffffffffffffffffffffffffffff1673ffffffffffffffffffffffffffffffffffffffff1663a9059cbb33836040518363ffffffff1660e01b8152600401610e74929190611e58565b6020604051808303816000875af1158015610e93573d6000803e3d6000fd5b505050506040513d601f19601f82011682018060405250810190610eb79190611b02565b5050565b610ec36114b1565b73ffffffffffffffffffffffffffffffffffffffff16610ee161110f565b73ffffffffffffffffffffffffffffffffffffffff1614610f37576040517f08c379a0000000000000000000000000000000000000000000000000000000008152600401610f2e9061195b565b60405180910390fd5b82600d8190555081600e8190555080600f81905550505050565b6000600160008373ffffffffffffffffffffffffffffffffffffffff1673ffffffffffffffffffffffffffffffffffffffff168152602001908152602001600020549050919050565b610fa26114b1565b73ffffffffffffffffffffffffffffffffffffffff16610fc061110f565b73ffffffffffffffffffffffffffffffffffffffff1614611016576040517f08c379a000000000000000000000000000000000000000000000000000000000815260040161100d9061195b565b60405180910390fd5b61102060006114b9565b565b600e5481565b600c60003373ffffffffffffffffffffffffffffffffffffffff1673ffffffffffffffffffffffffffffffffffffffff16815260200190815260200160002060009054906101000a900460ff166110b4576040517f08c379a00000000000000000000000000000000000000000000000000000000081526004016110ab90611ecd565b60405180910390fd5b6001600b60008373ffffffffffffffffffffffffffffffffffffffff1673ffffffffffffffffffffffffffffffffffffffff16815260200190815260200160002060006101000a81548160ff02191690831515021790555050565b60008060009054906101000a900473ffffffffffffffffffffffffffffffffffffffff16905090565b6000600554905090565b61114a6114b1565b73ffffffffffffffffffffffffffffffffffffffff1661116861110f565b73ffffffffffffffffffffffffffffffffffffffff16146111be576040517f08c379a00000000000000000000000000000000000000000000000000000000081526004016111b59061195b565b60405180910390fd5b8060088190555050565b6000600854905090565b6000600654905090565b6000600754905090565b6111ee6114b1565b73ffffffffffffffffffffffffffffffffffffffff1661120c61110f565b73ffffffffffffffffffffffffffffffffffffffff1614611262576040517f08c379a00000000000000000000000000000000000000000000000000000000081526004016112599061195b565b60405180910390fd5b60008151905060005b818110156112fe57600083828151811061128857611287611eed565b5b602002602001015190506001600c60008373ffffffffffffffffffffffffffffffffffffffff1673ffffffffffffffffffffffffffffffffffffffff16815260200190815260200160002060006101000a81548160ff0219169083151502179055505080806112f690611f1c565b91505061126b565b505050565b6000600a54905090565b6113156114b1565b73ffffffffffffffffffffffffffffffffffffffff1661133361110f565b73ffffffffffffffffffffffffffffffffffffffff1614611389576040517f08c379a00000000000000000000000000000000000000000000000000000000081526004016113809061195b565b60405180910390fd5b600073ffffffffffffffffffffffffffffffffffffffff168173ffffffffffffffffffffffffffffffffffffffff1614156113f9576040517f08c379a00000000000000000000000000000000000000000000000000000000081526004016113f09061211b565b60405180910390fd5b611402816114b9565b50565b61140d6114b1565b73ffffffffffffffffffffffffffffffffffffffff1661142b61110f565b73ffffffffffffffffffffffffffffffffffffffff1614611481576040517f08c379a00000000000000000000000000000000000000000000000000000000081526004016114789061195b565b60405180910390fd5b8060098190555050565b600260009054906101000a900473ffffffffffffffffffffffffffffffffffffffff1681565b600033905090565b60008060009054906101000a900473ffffffffffffffffffffffffffffffffffffffff169050816000806101000a81548173ffffffffffffffffffffffffffffffffffffffff021916908373ffffffffffffffffffffffffffffffffffffffff1602179055508173ffffffffffffffffffffffffffffffffffffffff168173ffffffffffffffffffffffffffffffffffffffff167f8be0079c531659141344cd1fd0a4f28419497f9722a3daafe3b4186f6b6457e060405160405180910390a35050565b6000819050919050565b6115908161157d565b82525050565b60006020820190506115ab6000830184611587565b92915050565b6000604051905090565b600080fd5b600080fd5b6115ce8161157d565b81146115d957600080fd5b50565b6000813590506115eb816115c5565b92915050565b600060208284031215611607576116066115bb565b5b6000611615848285016115dc565b91505092915050565b600073ffffffffffffffffffffffffffffffffffffffff82169050919050565b60006116498261161e565b9050919050565b6116598161163e565b811461166457600080fd5b50565b60008135905061167681611650565b92915050565b600060208284031215611692576116916115bb565b5b60006116a084828501611667565b91505092915050565b60008115159050919050565b6116be816116a9565b82525050565b60006020820190506116d960008301846116b5565b92915050565b600080fd5b6000601f19601f8301169050919050565b7f4e487b7100000000000000000000000000000000000000000000000000000000600052604160045260246000fd5b61172d826116e4565b810181811067ffffffffffffffff8211171561174c5761174b6116f5565b5b80604052505050565b600061175f6115b1565b905061176b8282611724565b919050565b600067ffffffffffffffff82111561178b5761178a6116f5565b5b602082029050602081019050919050565b600080fd5b60006117b46117af84611770565b611755565b905080838252602082019050602084028301858111156117d7576117d661179c565b5b835b8181101561180057806117ec8882611667565b8452602084019350506020810190506117d9565b5050509392505050565b600082601f83011261181f5761181e6116df565b5b813561182f8482602086016117a1565b91505092915050565b60006020828403121561184e5761184d6115bb565b5b600082013567ffffffffffffffff81111561186c5761186b6115c0565b5b6118788482850161180a565b91505092915050565b60008060006060848603121561189a576118996115bb565b5b60006118a8868287016115dc565b93505060206118b9868287016115dc565b92505060406118ca868287016115dc565b9150509250925092565b6118dd8161163e565b82525050565b60006020820190506118f860008301846118d4565b92915050565b600082825260208201905092915050565b7f4f776e61626c653a2063616c6c6572206973206e6f7420746865206f776e6572600082015250565b60006119456020836118fe565b91506119508261190f565b602082019050919050565b6000602082019050818103600083015261197481611938565b9050919050565b7f57686974656c6973743a20596f75206e65656420746f2062652077686974656c60008201527f6973746564000000000000000000000000000000000000000000000000000000602082015250565b60006119d76025836118fe565b91506119e28261197b565b604082019050919050565b60006020820190508181036000830152611a06816119ca565b9050919050565b7f416d6f756e742073686f756c642062652067726561746572207468616e20507260008201527f6963652e00000000000000000000000000000000000000000000000000000000602082015250565b6000611a696024836118fe565b9150611a7482611a0d565b604082019050919050565b60006020820190508181036000830152611a9881611a5c565b9050919050565b6000606082019050611ab460008301866118d4565b611ac160208301856118d4565b611ace6040830184611587565b949350505050565b611adf816116a9565b8114611aea57600080fd5b50565b600081519050611afc81611ad6565b92915050565b600060208284031215611b1857611b176115bb565b5b6000611b2684828501611aed565b91505092915050565b7f4e487b7100000000000000000000000000000000000000000000000000000000600052601260045260246000fd5b7f4e487b7100000000000000000000000000000000000000000000000000000000600052601160045260246000fd5b6000611b988261157d565b9150611ba38361157d565b925082611bb357611bb2611b2f565b5b828204905092915050565b60008160011c9050919050565b6000808291508390505b6001851115611c1557808604811115611bf157611bf0611b5e565b5b6001851615611c005780820291505b8081029050611c0e85611bbe565b9450611bd5565b94509492505050565b600082611c2e5760019050611cea565b81611c3c5760009050611cea565b8160018114611c525760028114611c5c57611c8b565b6001915050611cea565b60ff841115611c6e57611c6d611b5e565b5b8360020a915084821115611c8557611c84611b5e565b5b50611cea565b5060208310610133831016604e8410600b8410161715611cc05782820a905083811115611cbb57611cba611b5e565b5b611cea565b611ccd8484846001611bcb565b92509050818404811115611ce457611ce3611b5e565b5b81810290505b9392505050565b6000611cfc8261157d565b9150611d078361157d565b9250611d347fffffffffffffffffffffffffffffffffffffffffffffffffffffffffffffffff8484611c1e565b905092915050565b6000611d478261157d565b9150611d528361157d565b9250817fffffffffffffffffffffffffffffffffffffffffffffffffffffffffffffffff0483118215151615611d8b57611d8a611b5e565b5b828202905092915050565b7f69636f73616c6520616d6f756e7420746f6b656e206973206f7665722e000000600082015250565b6000611dcc601d836118fe565b9150611dd782611d96565b602082019050919050565b60006020820190508181036000830152611dfb81611dbf565b9050919050565b6000611e0d8261157d565b9150611e188361157d565b9250827fffffffffffffffffffffffffffffffffffffffffffffffffffffffffffffffff03821115611e4d57611e4c611b5e565b5b828201905092915050565b6000604082019050611e6d60008301856118d4565b611e7a6020830184611587565b9392505050565b7f596f7520617265206e6f7420612041646d696e2e000000000000000000000000600082015250565b6000611eb76014836118fe565b9150611ec282611e81565b602082019050919050565b60006020820190508181036000830152611ee681611eaa565b9050919050565b7f4e487b7100000000000000000000000000000000000000000000000000000000600052603260045260246000fd5b6000611f278261157d565b91507fffffffffffffffffffffffffffffffffffffffffffffffffffffffffffffffff821415611f5a57611f59611b5e565b5b600182019050919050565b7f50726573616c6520737461727474696d65206973206f76657200000000000000600082015250565b6000611f9b6019836118fe565b9150611fa682611f65565b602082019050919050565b60006020820190508181036000830152611fca81611f8e565b9050919050565b7f50726573616c6520656e6474696d65206973206f766572000000000000000000600082015250565b60006120076017836118fe565b915061201282611fd1565b602082019050919050565b6000602082019050818103600083015261203681611ffa565b9050919050565b7f50726573616c6520616d6f756e7420746f6b656e206973206f7665722e000000600082015250565b6000612073601d836118fe565b915061207e8261203d565b602082019050919050565b600060208201905081810360008301526120a281612066565b9050919050565b7f4f776e61626c653a206e6577206f776e657220697320746865207a65726f206160008201527f6464726573730000000000000000000000000000000000000000000000000000602082015250565b60006121056026836118fe565b9150612110826120a9565b604082019050919050565b60006020820190508181036000830152612134816120f8565b905091905056fea26469706673582212201e193b9412860072a9ee0691af3ff7f58bc545bcddd182f2f515a948b2ade6b364736f6c634300080a0033",
  "immutableReferences": {},
  "source": "// SPDX-License-Identifier: MIT\npragma solidity ^0.8.0;\n\nimport \"@openzeppelin/contracts/interfaces/IERC20.sol\";\nimport \"@openzeppelin/contracts/access/Ownable.sol\";\n\ncontract MFLIXSale is Ownable {\n    mapping(address => uint256) private _balances;\n\n    address public admin;\n    address private mcubeAddress;\n    address private tokenAddress;\n    uint256 private _totalSold;\n    uint256 private _preTotalSold;\n    uint256 private _icoTotalSold;\n    uint256 private price;\n    uint256 private presaleAmount;\n    uint256 private icosaleAmount;\n\n    mapping(address => bool) whitelistedAddresses;\n    mapping(address => bool) adminAddresses;\n\n    uint256 public presaleStartTimestamp;\n    uint256 public presaleEndTimestamp;\n    uint256 public presalePrice;\n\n    constructor(address _admin,address _mcubeAddress,address _tokenAddress,uint256 _price, uint256 _presaleAmount, uint256 _icosaleAmount) {\n        admin = _admin;\n        mcubeAddress = _mcubeAddress;\n        tokenAddress = _tokenAddress;\n        price = _price;\n        presaleAmount = _presaleAmount;\n        icosaleAmount = _icosaleAmount;\n    }\n  function balanceOf(address account) public view returns (uint256) {\n        return _balances[account];\n    }\n\n    function setPrice (uint256 _price) public onlyOwner{\n    price = _price;\n    }\n\n    function getPrice () public view virtual returns (uint256){\n        return price;\n    }\n\n    function getpresaleAmount () public view virtual returns (uint256){\n        return presaleAmount;\n    }\n\n    function geticosaleAmount () public view virtual returns (uint256){\n        return icosaleAmount;\n    }\n\n    function setpresaleAmount (uint256 _setpresaleAmount) public onlyOwner{\n        presaleAmount = _setpresaleAmount;\n    }\n\n    function seticosaleAmount (uint256 _seticosaleAmount) public onlyOwner{\n        icosaleAmount = _seticosaleAmount;\n    }\n\n    function totalSold () public view virtual returns (uint256){\n        return _totalSold;\n    }   \n\n    function preTotalSold () public view virtual returns (uint256){\n        return _preTotalSold;\n    }\n\n    function icoTotalSold () public view virtual returns (uint256){\n        return _icoTotalSold;\n    }\n\n    function addAdminUser(address[] memory _addressAdmin) public onlyOwner {\n        uint size = _addressAdmin.length;\n        for(uint256 i=0; i< size; i++){\n            address adminUser = _addressAdmin[i];\n            adminAddresses[adminUser] = true;\n        }\n    }\n\n    function verifyAdmin(address _addressAdmin) public view returns(bool) {\n      bool adminIsWhitelisted = adminAddresses[_addressAdmin];\n      return adminIsWhitelisted;\n    }\n\n    modifier onlyAdmin() {\n      require(adminAddresses[msg.sender], \"You are not a Admin.\");\n      _;\n    }\n\n    function setPreToken (uint256 _presaleStartTimestamp, uint256 _presaleEndTimestamp,uint256 _presalePrice) public onlyOwner{  \n      presaleStartTimestamp = _presaleStartTimestamp;\n      presaleEndTimestamp = _presaleEndTimestamp;\n      presalePrice = _presalePrice;\n    }\n\n  function presaleBuyToken (uint256 amount) public onlyWhitelisted{  \n      require(presaleStartTimestamp <= block.timestamp, \"Presale starttime is over\");\n      require(presaleEndTimestamp >= block.timestamp, \"Presale endtime is over\");\n      require(amount >= presalePrice,\"Amount should be greater than Price.\");\n      IERC20(tokenAddress).transferFrom(msg.sender, admin, amount);\n      uint256 tokenAmount = amount / presalePrice;\n      require(presaleAmount >= tokenAmount * 10**uint(18),\"Presale amount token is over.\"); \n      _totalSold += tokenAmount;\n      _preTotalSold += tokenAmount;\n      IERC20(mcubeAddress).transfer(msg.sender, tokenAmount * 10**uint(18));\n    }\n\n    function buyToken (uint256 amount) public onlyWhitelisted{  \n      require(amount>=price,\"Amount should be greater than Price.\");  \n      IERC20(tokenAddress).transferFrom(msg.sender,admin,amount);\n      uint256 tokenAmount = amount / price;\n      require(icosaleAmount >= tokenAmount * 10**uint(18),\"icosale amount token is over.\"); \n      _totalSold += tokenAmount;\n      _icoTotalSold += tokenAmount;\n      IERC20(mcubeAddress).transfer(msg.sender,tokenAmount * 10**uint(18));\n    }\n\n    function withdrawToken (uint256 tokenAmount) external onlyOwner{   \n    IERC20(mcubeAddress).transfer(msg.sender,tokenAmount);  \n    }\n\n    modifier isWhitelisted(address _address) {\n      require(whitelistedAddresses[_address], \"Whitelist: You need to be whitelisted\");\n      _;\n    }\n\n    modifier onlyWhitelisted() {\n      require(whitelistedAddresses[msg.sender], \"Whitelist: You need to be whitelisted\");\n      _;\n    }\n\n    function addWhitelistUser(address _addressToWhitelist) public onlyAdmin {\n      whitelistedAddresses[_addressToWhitelist] = true;\n    }\n\n    function verifyUser(address _whitelistedAddress) public view returns(bool) {\n      bool userIsWhitelisted = whitelistedAddresses[_whitelistedAddress];\n      return userIsWhitelisted;\n    }\n\n    function batchWhitelist(address[] memory _addressToWhitelist) public onlyAdmin {\n      uint size = _addressToWhitelist.length;\n    \n      for(uint256 i=0; i< size; i++){\n          address user = _addressToWhitelist[i];\n          whitelistedAddresses[user] = true;\n      }\n }\n\n}",
  "sourcePath": "/home/sevenbits/Documents/Mcube_Biz/mcubebiz-blockchain/contracts/ICO_contract.sol",
  "compiler": {
    "name": "solc",
    "version": "0.8.10+commit.fc410830.Emscripten.clang"
  },
  "schemaVersion": "3.4.3",
  "updatedAt": "2022-05-03T16:52:26.899Z",
  "networkType": "ethereum",
  "devdoc": {
    "kind": "dev",
    "methods": {
      "owner()": {
        "details": "Returns the address of the current owner."
      },
      "renounceOwnership()": {
        "details": "Leaves the contract without owner. It will not be possible to call `onlyOwner` functions anymore. Can only be called by the current owner. NOTE: Renouncing ownership will leave the contract without an owner, thereby removing any functionality that is only available to the owner."
      },
      "transferOwnership(address)": {
        "details": "Transfers ownership of the contract to a new account (`newOwner`). Can only be called by the current owner."
      }
    },
    "version": 1
  },
  "userdoc": {
    "kind": "user",
    "methods": {},
    "version": 1
  }
}